{
  "_format": "hh-sol-artifact-1",
  "contractName": "Remittance",
  "sourceName": "contracts/Remittance.sol",
  "abi": [
    {
      "inputs": [],
      "stateMutability": "nonpayable",
      "type": "constructor"
    },
    {
      "inputs": [],
      "name": "EnforcedPause",
      "type": "error"
    },
    {
      "inputs": [],
      "name": "ExpectedPause",
      "type": "error"
    },
    {
      "inputs": [
        {
          "internalType": "address",
          "name": "owner",
          "type": "address"
        }
      ],
      "name": "OwnableInvalidOwner",
      "type": "error"
    },
    {
      "inputs": [
        {
          "internalType": "address",
          "name": "account",
          "type": "address"
        }
      ],
      "name": "OwnableUnauthorizedAccount",
      "type": "error"
    },
    {
      "inputs": [],
      "name": "ReentrancyGuardReentrantCall",
      "type": "error"
    },
    {
      "anonymous": false,
      "inputs": [
        {
          "indexed": true,
          "internalType": "address",
          "name": "admin",
          "type": "address"
        },
        {
          "indexed": false,
          "internalType": "uint256",
          "name": "amount",
          "type": "uint256"
        }
      ],
      "name": "AdminDeposit",
      "type": "event"
    },
    {
      "anonymous": false,
      "inputs": [
        {
          "indexed": true,
          "internalType": "address",
          "name": "recipient",
          "type": "address"
        },
        {
          "indexed": false,
          "internalType": "uint256",
          "name": "amount",
          "type": "uint256"
        }
      ],
      "name": "Claimed",
      "type": "event"
    },
    {
      "anonymous": false,
      "inputs": [
        {
          "indexed": false,
          "internalType": "uint256",
          "name": "amount",
          "type": "uint256"
        },
        {
          "indexed": false,
          "internalType": "uint256",
          "name": "calculatedFee",
          "type": "uint256"
        }
      ],
      "name": "FeeCalculated",
      "type": "event"
    },
    {
      "anonymous": false,
      "inputs": [
        {
          "indexed": false,
          "internalType": "uint256",
          "name": "amount",
          "type": "uint256"
        },
        {
          "indexed": false,
          "internalType": "uint256",
          "name": "totalAccumulated",
          "type": "uint256"
        }
      ],
      "name": "FeeCollected",
      "type": "event"
    },
    {
      "anonymous": false,
      "inputs": [
        {
          "indexed": true,
          "internalType": "address",
          "name": "recipient",
          "type": "address"
        },
        {
          "indexed": false,
          "internalType": "bool",
          "name": "frozen",
          "type": "bool"
        }
      ],
      "name": "Frozen",
      "type": "event"
    },
    {
      "anonymous": false,
      "inputs": [
        {
          "indexed": true,
          "internalType": "address",
          "name": "previousOwner",
          "type": "address"
        },
        {
          "indexed": true,
          "internalType": "address",
          "name": "newOwner",
          "type": "address"
        }
      ],
      "name": "OwnershipTransferred",
      "type": "event"
    },
    {
      "anonymous": false,
      "inputs": [
        {
          "indexed": false,
          "internalType": "address",
          "name": "account",
          "type": "address"
        }
      ],
      "name": "Paused",
      "type": "event"
    },
    {
      "anonymous": false,
      "inputs": [
        {
          "indexed": true,
          "internalType": "address",
          "name": "sender",
          "type": "address"
        },
        {
          "indexed": true,
          "internalType": "address",
          "name": "recipient",
          "type": "address"
        },
        {
          "indexed": false,
          "internalType": "uint256",
          "name": "amount",
          "type": "uint256"
        }
      ],
      "name": "Sent",
      "type": "event"
    },
    {
      "anonymous": false,
      "inputs": [
        {
          "indexed": true,
          "internalType": "address",
          "name": "user",
          "type": "address"
        },
        {
          "indexed": false,
          "internalType": "enum LimitLib.UserTier",
          "name": "newTier",
          "type": "uint8"
        }
      ],
      "name": "TierUpdated",
      "type": "event"
    },
    {
      "anonymous": false,
      "inputs": [
        {
          "indexed": true,
          "internalType": "uint256",
          "name": "txnId",
          "type": "uint256"
        },
        {
          "indexed": true,
          "internalType": "address",
          "name": "sender",
          "type": "address"
        },
        {
          "indexed": true,
          "internalType": "address",
          "name": "recipient",
          "type": "address"
        },
        {
          "indexed": false,
          "internalType": "uint256",
          "name": "amount",
          "type": "uint256"
        },
        {
          "indexed": false,
          "internalType": "uint256",
          "name": "fee",
          "type": "uint256"
        }
      ],
      "name": "TransactionRecorded",
      "type": "event"
    },
    {
      "anonymous": false,
      "inputs": [
        {
          "indexed": false,
          "internalType": "address",
          "name": "account",
          "type": "address"
        }
      ],
      "name": "Unpaused",
      "type": "event"
    },
    {
      "anonymous": false,
      "inputs": [
        {
          "indexed": true,
          "internalType": "address",
          "name": "user",
          "type": "address"
        },
        {
          "indexed": false,
          "internalType": "bool",
          "name": "status",
          "type": "bool"
        }
      ],
      "name": "UserBlacklisted",
      "type": "event"
    },
    {
      "anonymous": false,
      "inputs": [
        {
          "indexed": true,
          "internalType": "address",
          "name": "user",
          "type": "address"
        },
        {
          "indexed": false,
          "internalType": "bool",
          "name": "status",
          "type": "bool"
        }
      ],
      "name": "UserWhitelisted",
      "type": "event"
    },
    {
      "stateMutability": "nonpayable",
      "type": "fallback"
    },
    {
      "inputs": [],
      "name": "FEE_DENOMINATOR",
      "outputs": [
        {
          "internalType": "uint256",
          "name": "",
          "type": "uint256"
        }
      ],
      "stateMutability": "view",
      "type": "function"
    },
    {
      "inputs": [],
      "name": "TRANSACTION_FEE_RATE",
      "outputs": [
        {
          "internalType": "uint256",
          "name": "",
          "type": "uint256"
        }
      ],
      "stateMutability": "view",
      "type": "function"
    },
    {
      "inputs": [],
      "name": "adminDeposit",
      "outputs": [],
      "stateMutability": "payable",
      "type": "function"
    },
    {
      "inputs": [
        {
          "internalType": "uint256",
          "name": "",
          "type": "uint256"
        }
      ],
      "name": "allTransactions",
      "outputs": [
        {
          "internalType": "address",
          "name": "sender",
          "type": "address"
        },
        {
          "internalType": "address",
          "name": "recipient",
          "type": "address"
        },
        {
          "internalType": "uint256",
          "name": "amount",
          "type": "uint256"
        },
        {
          "internalType": "uint256",
          "name": "fee",
          "type": "uint256"
        },
        {
          "internalType": "uint256",
          "name": "timestamp",
          "type": "uint256"
        },
        {
          "internalType": "uint256",
          "name": "txnId",
          "type": "uint256"
        }
      ],
      "stateMutability": "view",
      "type": "function"
    },
    {
      "inputs": [
        {
          "internalType": "address",
          "name": "user",
          "type": "address"
        },
        {
          "internalType": "enum LimitLib.UserTier",
          "name": "tier",
          "type": "uint8"
        }
      ],
      "name": "approveKYC",
      "outputs": [],
      "stateMutability": "nonpayable",
      "type": "function"
    },
    {
      "inputs": [
        {
          "internalType": "address[]",
          "name": "users",
          "type": "address[]"
        },
        {
          "internalType": "enum LimitLib.UserTier[]",
          "name": "tiers",
          "type": "uint8[]"
        }
      ],
      "name": "batchApprove",
      "outputs": [],
      "stateMutability": "nonpayable",
      "type": "function"
    },
    {
      "inputs": [
        {
          "internalType": "uint256",
          "name": "amount",
          "type": "uint256"
        }
      ],
      "name": "calculateTransactionFee",
      "outputs": [
        {
          "internalType": "uint256",
          "name": "",
          "type": "uint256"
        }
      ],
      "stateMutability": "pure",
      "type": "function"
    },
    {
      "inputs": [],
      "name": "claimRemittance",
      "outputs": [],
      "stateMutability": "nonpayable",
      "type": "function"
    },
    {
      "inputs": [
        {
          "internalType": "address",
          "name": "user",
          "type": "address"
        }
      ],
      "name": "emergencyRecovery",
      "outputs": [],
      "stateMutability": "nonpayable",
      "type": "function"
    },
    {
      "inputs": [],
      "name": "emergencyWithdraw",
      "outputs": [],
      "stateMutability": "nonpayable",
      "type": "function"
    },
    {
      "inputs": [
        {
          "internalType": "address",
          "name": "user",
          "type": "address"
        },
        {
          "internalType": "bool",
          "name": "frozen",
          "type": "bool"
        }
      ],
      "name": "freezeRecipient",
      "outputs": [],
      "stateMutability": "nonpayable",
      "type": "function"
    },
    {
      "inputs": [],
      "name": "getAccumulatedFees",
      "outputs": [
        {
          "internalType": "uint256",
          "name": "",
          "type": "uint256"
        }
      ],
      "stateMutability": "view",
      "type": "function"
    },
    {
      "inputs": [],
      "name": "getAllKYCUsers",
      "outputs": [
        {
          "internalType": "address[]",
          "name": "",
          "type": "address[]"
        }
      ],
      "stateMutability": "view",
      "type": "function"
    },
    {
      "inputs": [],
      "name": "getAllTransactions",
      "outputs": [
        {
          "components": [
            {
              "internalType": "address",
              "name": "sender",
              "type": "address"
            },
            {
              "internalType": "address",
              "name": "recipient",
              "type": "address"
            },
            {
              "internalType": "uint256",
              "name": "amount",
              "type": "uint256"
            },
            {
              "internalType": "uint256",
              "name": "fee",
              "type": "uint256"
            },
            {
              "internalType": "uint256",
              "name": "timestamp",
              "type": "uint256"
            },
            {
              "internalType": "uint256",
              "name": "txnId",
              "type": "uint256"
            }
          ],
          "internalType": "struct Remittance.Transaction[]",
          "name": "",
          "type": "tuple[]"
        }
      ],
      "stateMutability": "view",
      "type": "function"
    },
    {
      "inputs": [
        {
          "internalType": "address",
          "name": "user",
          "type": "address"
        }
      ],
      "name": "getBalance",
      "outputs": [
        {
          "internalType": "uint256",
          "name": "",
          "type": "uint256"
        }
      ],
      "stateMutability": "view",
      "type": "function"
    },
    {
      "inputs": [],
      "name": "getContractBalance",
      "outputs": [
        {
          "internalType": "uint256",
          "name": "",
          "type": "uint256"
        }
      ],
      "stateMutability": "view",
      "type": "function"
    },
    {
      "inputs": [],
      "name": "getContractInfo",
      "outputs": [
        {
          "internalType": "uint256",
          "name": "totalUsers",
          "type": "uint256"
        },
        {
          "internalType": "uint256",
          "name": "totalTransactions",
          "type": "uint256"
        },
        {
          "internalType": "uint256",
          "name": "contractBalance",
          "type": "uint256"
        },
        {
          "internalType": "uint256",
          "name": "pendingKYCs",
          "type": "uint256"
        },
        {
          "internalType": "uint256",
          "name": "accumulatedFeesAmount",
          "type": "uint256"
        }
      ],
      "stateMutability": "view",
      "type": "function"
    },
    {
      "inputs": [
        {
          "internalType": "address",
          "name": "user",
          "type": "address"
        }
      ],
      "name": "getKYCRequest",
      "outputs": [
        {
          "internalType": "string",
          "name": "documentHash",
          "type": "string"
        },
        {
          "internalType": "uint256",
          "name": "timestamp",
          "type": "uint256"
        },
        {
          "internalType": "enum KYCLib.KYCStatus",
          "name": "status",
          "type": "uint8"
        },
        {
          "internalType": "string",
          "name": "rejectionReason",
          "type": "string"
        }
      ],
      "stateMutability": "view",
      "type": "function"
    },
    {
      "inputs": [
        {
          "internalType": "address",
          "name": "user",
          "type": "address"
        }
      ],
      "name": "getKYCStatus",
      "outputs": [
        {
          "internalType": "enum KYCLib.KYCStatus",
          "name": "",
          "type": "uint8"
        }
      ],
      "stateMutability": "view",
      "type": "function"
    },
    {
      "inputs": [],
      "name": "getMyBalance",
      "outputs": [
        {
          "internalType": "uint256",
          "name": "",
          "type": "uint256"
        }
      ],
      "stateMutability": "view",
      "type": "function"
    },
    {
      "inputs": [],
      "name": "getMyBlacklistStatus",
      "outputs": [
        {
          "internalType": "bool",
          "name": "",
          "type": "bool"
        }
      ],
      "stateMutability": "view",
      "type": "function"
    },
    {
      "inputs": [],
      "name": "getMyFrozenStatus",
      "outputs": [
        {
          "internalType": "bool",
          "name": "",
          "type": "bool"
        }
      ],
      "stateMutability": "view",
      "type": "function"
    },
    {
      "inputs": [],
      "name": "getMyKYCStatus",
      "outputs": [
        {
          "internalType": "enum KYCLib.KYCStatus",
          "name": "",
          "type": "uint8"
        }
      ],
      "stateMutability": "view",
      "type": "function"
    },
    {
      "inputs": [],
      "name": "getMyRemainingLimit",
      "outputs": [
        {
          "internalType": "uint256",
          "name": "",
          "type": "uint256"
        }
      ],
      "stateMutability": "view",
      "type": "function"
    },
    {
      "inputs": [],
      "name": "getMyTier",
      "outputs": [
        {
          "internalType": "enum LimitLib.UserTier",
          "name": "",
          "type": "uint8"
        }
      ],
      "stateMutability": "view",
      "type": "function"
    },
    {
      "inputs": [],
      "name": "getMyTransactionIds",
      "outputs": [
        {
          "internalType": "uint256[]",
          "name": "",
          "type": "uint256[]"
        }
      ],
      "stateMutability": "view",
      "type": "function"
    },
    {
      "inputs": [],
      "name": "getMyTransactions",
      "outputs": [
        {
          "components": [
            {
              "internalType": "address",
              "name": "sender",
              "type": "address"
            },
            {
              "internalType": "address",
              "name": "recipient",
              "type": "address"
            },
            {
              "internalType": "uint256",
              "name": "amount",
              "type": "uint256"
            },
            {
              "internalType": "uint256",
              "name": "fee",
              "type": "uint256"
            },
            {
              "internalType": "uint256",
              "name": "timestamp",
              "type": "uint256"
            },
            {
              "internalType": "uint256",
              "name": "txnId",
              "type": "uint256"
            }
          ],
          "internalType": "struct Remittance.Transaction[]",
          "name": "",
          "type": "tuple[]"
        }
      ],
      "stateMutability": "view",
      "type": "function"
    },
    {
      "inputs": [],
      "name": "getMyWhitelistStatus",
      "outputs": [
        {
          "internalType": "bool",
          "name": "",
          "type": "bool"
        }
      ],
      "stateMutability": "view",
      "type": "function"
    },
    {
      "inputs": [],
      "name": "getPendingKYC",
      "outputs": [
        {
          "internalType": "address[]",
          "name": "",
          "type": "address[]"
        }
      ],
      "stateMutability": "view",
      "type": "function"
    },
    {
      "inputs": [
        {
          "internalType": "address",
          "name": "user",
          "type": "address"
        }
      ],
      "name": "getRemainingLimit",
      "outputs": [
        {
          "internalType": "uint256",
          "name": "",
          "type": "uint256"
        }
      ],
      "stateMutability": "view",
      "type": "function"
    },
    {
      "inputs": [
        {
          "internalType": "enum LimitLib.UserTier",
          "name": "tier",
          "type": "uint8"
        }
      ],
      "name": "getTierLimit",
      "outputs": [
        {
          "internalType": "uint256",
          "name": "",
          "type": "uint256"
        }
      ],
      "stateMutability": "view",
      "type": "function"
    },
    {
      "inputs": [],
      "name": "getTotalTransactions",
      "outputs": [
        {
          "internalType": "uint256",
          "name": "",
          "type": "uint256"
        }
      ],
      "stateMutability": "view",
      "type": "function"
    },
    {
      "inputs": [
        {
          "internalType": "uint256",
          "name": "txnId",
          "type": "uint256"
        }
      ],
      "name": "getTransaction",
      "outputs": [
        {
          "internalType": "address",
          "name": "sender",
          "type": "address"
        },
        {
          "internalType": "address",
          "name": "recipient",
          "type": "address"
        },
        {
          "internalType": "uint256",
          "name": "amount",
          "type": "uint256"
        },
        {
          "internalType": "uint256",
          "name": "fee",
          "type": "uint256"
        },
        {
          "internalType": "uint256",
          "name": "timestamp",
          "type": "uint256"
        }
      ],
      "stateMutability": "view",
      "type": "function"
    },
    {
      "inputs": [
        {
          "internalType": "uint256",
          "name": "amount",
          "type": "uint256"
        }
      ],
      "name": "getTransactionCost",
      "outputs": [
        {
          "internalType": "uint256",
          "name": "fee",
          "type": "uint256"
        },
        {
          "internalType": "uint256",
          "name": "total",
          "type": "uint256"
        }
      ],
      "stateMutability": "pure",
      "type": "function"
    },
    {
      "inputs": [
        {
          "internalType": "address",
          "name": "user",
          "type": "address"
        }
      ],
      "name": "getTransactionsByUser",
      "outputs": [
        {
          "components": [
            {
              "internalType": "address",
              "name": "sender",
              "type": "address"
            },
            {
              "internalType": "address",
              "name": "recipient",
              "type": "address"
            },
            {
              "internalType": "uint256",
              "name": "amount",
              "type": "uint256"
            },
            {
              "internalType": "uint256",
              "name": "fee",
              "type": "uint256"
            },
            {
              "internalType": "uint256",
              "name": "timestamp",
              "type": "uint256"
            },
            {
              "internalType": "uint256",
              "name": "txnId",
              "type": "uint256"
            }
          ],
          "internalType": "struct Remittance.Transaction[]",
          "name": "",
          "type": "tuple[]"
        }
      ],
      "stateMutability": "view",
      "type": "function"
    },
    {
      "inputs": [
        {
          "internalType": "address",
          "name": "user",
          "type": "address"
        }
      ],
      "name": "getUserInfo",
      "outputs": [
        {
          "internalType": "enum LimitLib.UserTier",
          "name": "tier",
          "type": "uint8"
        },
        {
          "internalType": "uint256",
          "name": "dailyLimit",
          "type": "uint256"
        },
        {
          "internalType": "uint256",
          "name": "todayUsed",
          "type": "uint256"
        },
        {
          "internalType": "uint256",
          "name": "balance",
          "type": "uint256"
        },
        {
          "internalType": "bool",
          "name": "isWhitelistedUser",
          "type": "bool"
        },
        {
          "internalType": "bool",
          "name": "isBlacklistedUser",
          "type": "bool"
        },
        {
          "internalType": "bool",
          "name": "isFrozenUser",
          "type": "bool"
        },
        {
          "internalType": "enum KYCLib.KYCStatus",
          "name": "kycStatus",
          "type": "uint8"
        }
      ],
      "stateMutability": "view",
      "type": "function"
    },
    {
      "inputs": [
        {
          "internalType": "address",
          "name": "user",
          "type": "address"
        }
      ],
      "name": "getUserTransactionIds",
      "outputs": [
        {
          "internalType": "uint256[]",
          "name": "",
          "type": "uint256[]"
        }
      ],
      "stateMutability": "view",
      "type": "function"
    },
    {
      "inputs": [
        {
          "internalType": "address",
          "name": "user",
          "type": "address"
        }
      ],
      "name": "isBlacklisted",
      "outputs": [
        {
          "internalType": "bool",
          "name": "",
          "type": "bool"
        }
      ],
      "stateMutability": "view",
      "type": "function"
    },
    {
      "inputs": [
        {
          "internalType": "address",
          "name": "user",
          "type": "address"
        }
      ],
      "name": "isFrozen",
      "outputs": [
        {
          "internalType": "bool",
          "name": "",
          "type": "bool"
        }
      ],
      "stateMutability": "view",
      "type": "function"
    },
    {
      "inputs": [
        {
          "internalType": "address",
          "name": "user",
          "type": "address"
        }
      ],
      "name": "isKYCApproved",
      "outputs": [
        {
          "internalType": "bool",
          "name": "",
          "type": "bool"
        }
      ],
      "stateMutability": "view",
      "type": "function"
    },
    {
      "inputs": [
        {
          "internalType": "address",
          "name": "user",
          "type": "address"
        }
      ],
      "name": "isWhitelisted",
      "outputs": [
        {
          "internalType": "bool",
          "name": "",
          "type": "bool"
        }
      ],
      "stateMutability": "view",
      "type": "function"
    },
    {
      "inputs": [],
      "name": "owner",
      "outputs": [
        {
          "internalType": "address",
          "name": "",
          "type": "address"
        }
      ],
      "stateMutability": "view",
      "type": "function"
    },
    {
      "inputs": [],
      "name": "pause",
      "outputs": [],
      "stateMutability": "nonpayable",
      "type": "function"
    },
    {
      "inputs": [],
      "name": "paused",
      "outputs": [
        {
          "internalType": "bool",
          "name": "",
          "type": "bool"
        }
      ],
      "stateMutability": "view",
      "type": "function"
    },
    {
      "inputs": [
        {
          "internalType": "address",
          "name": "user",
          "type": "address"
        },
        {
          "internalType": "string",
          "name": "reason",
          "type": "string"
        }
      ],
      "name": "rejectKYC",
      "outputs": [],
      "stateMutability": "nonpayable",
      "type": "function"
    },
    {
      "inputs": [],
      "name": "renounceOwnership",
      "outputs": [],
      "stateMutability": "nonpayable",
      "type": "function"
    },
    {
      "inputs": [
        {
          "internalType": "string",
          "name": "documentHash",
          "type": "string"
        }
      ],
      "name": "requestKYC",
      "outputs": [],
      "stateMutability": "nonpayable",
      "type": "function"
    },
    {
      "inputs": [
        {
          "internalType": "address",
          "name": "recipient",
          "type": "address"
        }
      ],
      "name": "sendRemittance",
      "outputs": [],
      "stateMutability": "payable",
      "type": "function"
    },
    {
      "inputs": [
        {
          "internalType": "address",
          "name": "user",
          "type": "address"
        },
        {
          "internalType": "bool",
          "name": "status",
          "type": "bool"
        }
      ],
      "name": "setBlacklist",
      "outputs": [],
      "stateMutability": "nonpayable",
      "type": "function"
    },
    {
      "inputs": [
        {
          "internalType": "enum LimitLib.UserTier",
          "name": "tier",
          "type": "uint8"
        },
        {
          "internalType": "uint256",
          "name": "limit",
          "type": "uint256"
        }
      ],
      "name": "setTierLimit",
      "outputs": [],
      "stateMutability": "nonpayable",
      "type": "function"
    },
    {
      "inputs": [
        {
          "internalType": "address",
          "name": "user",
          "type": "address"
        },
        {
          "internalType": "enum LimitLib.UserTier",
          "name": "tier",
          "type": "uint8"
        }
      ],
      "name": "setUserTier",
      "outputs": [],
      "stateMutability": "nonpayable",
      "type": "function"
    },
    {
      "inputs": [
        {
          "internalType": "address",
          "name": "newOwner",
          "type": "address"
        }
      ],
      "name": "transferOwnership",
      "outputs": [],
      "stateMutability": "nonpayable",
      "type": "function"
    },
    {
      "inputs": [],
      "name": "unpause",
      "outputs": [],
      "stateMutability": "nonpayable",
      "type": "function"
    },
    {
      "inputs": [],
      "name": "withdrawFees",
      "outputs": [],
      "stateMutability": "nonpayable",
      "type": "function"
    },
    {
      "stateMutability": "payable",
      "type": "receive"
    }
  ],
  "bytecode": "0x608060405260016012553480156200001657600080fd5b5033806200003e57604051631e4fbdf760e01b81526000600482015260240160405180910390fd5b62000049816200014e565b506001805560405163079f15cb60e41b81526009600482015273__$216d480fa12da97749257234eeb81fa17a$__906379f15cb09060240160006040518083038186803b1580156200009a57600080fd5b505af4158015620000af573d6000803e3d6000fd5b50506007805460018082019092557fa66cc928b5edb82af9bd49922954155ab7b0942694bea4ce44661d9a8736c688018054336001600160a01b031990911681179091556000908152600860209081526040808320805460ff1990811686179091556004808452828520805483166002179055600d845282852080548316909617909555600b90925290912080549091169091179055506200019e9050565b600080546001600160a01b038381166001600160a01b0319831681178455604051919092169283917f8be0079c531659141344cd1fd0a4f28419497f9722a3daafe3b4186f6b6457e09190a35050565b613efe80620001ae6000396000f3fe6080604052600436106103385760003560e01c80638456cb59116101ab578063ca5fd2d6116100f7578063e583983611610095578063f67a8c2f1161006f578063f67a8c2f14610a63578063f8b2cb4f14610a93578063fb9e9d9a14610ab3578063fe575a8714610ad35761038a565b8063e583983614610a03578063e77db23214610a23578063f2fde38b14610a435761038a565b8063d73792a9116100d1578063d73792a91461095f578063d7ff071414610976578063db2e21bc146109ce578063de23d89a146109e35761038a565b8063ca5fd2d6146108f2578063cfc4260e1461091f578063d223521d1461093f5761038a565b8063994b03ea11610164578063a04725c61161013e578063a04725c614610878578063b5c604ff14610898578063b6a4747f146108ad578063c645a627146108d25761038a565b8063994b03ea1461082e5780639997a8cb146108435780639c697750146108585761038a565b80638456cb591461077c578063856e679c146107915780638da5cb5b146107b1578063903e0a11146107d957806396b9cbdb146107f957806397e4ca70146108195761038a565b806349bcbb7e1161028557806366aa9aff11610223578063714c894e116101fd578063714c894e146106f3578063715018a6146107155780637cc1f8671461072a5780637e280ef1146107675761038a565b806366aa9aff146106b15780636cfa1145146106b95780636f9fb98a146106de5761038a565b80635c975abb1161025f5780635c975abb146106305780635df45a37146106485780636386c1c71461065d57806365e53260146106915761038a565b806349bcbb7e146105d65780634c738909146105e9578063523e984d1461060b5761038a565b8063238b651c116102f257806335aeac7f116102cc57806335aeac7f1461056a5780633af32abf1461058c5780633f4ba83a146105ac578063476343ee146105c15761038a565b8063238b651c146104e257806327506f531461050257806333ea3dc8146105175761038a565b80620c8df0146103d4578063047ac3641461040a5780630d65f323146104375780630dc4920c14610468578063153b0d1e1461048b57806318b51308146104ad5761038a565b3661038a5760405162461bcd60e51b815260206004820152601b60248201527f446972656374207061796d656e7473206e6f7420616c6c6f776564000000000060448201526064015b60405180910390fd5b34801561039657600080fd5b5060405162461bcd60e51b8152602060048201526012602482015271119d5b98dd1a5bdb881b9bdd08199bdd5b9960721b6044820152606401610381565b3480156103e057600080fd5b506103f46103ef3660046137c4565b610af3565b6040516104019190613809565b60405180910390f35b34801561041657600080fd5b5061042a6104253660046137c4565b610b58565b6040516104019190613817565b34801561044357600080fd5b50336000908152600e602052604090205460ff165b6040519015158152602001610401565b34801561047457600080fd5b5061047d610d6c565b604051908152602001610401565b34801561049757600080fd5b506104ab6104a63660046138a9565b610df8565b005b3480156104b957600080fd5b506104cd6104c83660046138e0565b610eed565b60408051928352602083019190915201610401565b3480156104ee57600080fd5b506104ab6104fd366004613942565b610f0c565b34801561050e57600080fd5b5061042a610ffc565b34801561052357600080fd5b506105376105323660046138e0565b6110a7565b604080516001600160a01b039687168152959094166020860152928401919091526060830152608082015260a001610401565b34801561057657600080fd5b5061057f6112e1565b6040516104019190613995565b34801561059857600080fd5b506104586105a73660046137c4565b611348565b3480156105b857600080fd5b506104ab6113a8565b3480156105cd57600080fd5b506104ab6113ba565b6104ab6105e43660046137c4565b6114d2565b3480156105f557600080fd5b50336000908152600c602052604090205461047d565b34801561061757600080fd5b503360009081526004602052604090205460ff166103f4565b34801561063c57600080fd5b5060025460ff16610458565b34801561065457600080fd5b5061047d611bc1565b34801561066957600080fd5b5061067d6106783660046137c4565b611bd2565b6040516104019897969594939291906139f2565b34801561069d57600080fd5b506104ab6106ac3660046137c4565b611d20565b6104ab611eb5565b3480156106c557600080fd5b50336000908152600d602052604090205460ff16610458565b3480156106ea57600080fd5b5061047d611f55565b3480156106ff57600080fd5b50610708611f64565b6040516104019190613a45565b34801561072157600080fd5b506104ab611fc4565b34801561073657600080fd5b5061073f611fd6565b604080519586526020860194909452928401919091526060830152608082015260a001610401565b34801561077357600080fd5b5061057f612000565b34801561078857600080fd5b506104ab612065565b34801561079d57600080fd5b5061047d6107ac366004613a8c565b612075565b3480156107bd57600080fd5b506000546040516001600160a01b039091168152602001610401565b3480156107e557600080fd5b506104ab6107f4366004613aa7565b6120b3565b34801561080557600080fd5b506104ab6108143660046138a9565b61216b565b34801561082557600080fd5b5061042a612257565b34801561083a57600080fd5b5061047d607d81565b34801561084f57600080fd5b506104ab61241f565b34801561086457600080fd5b5061047d6108733660046137c4565b612652565b34801561088457600080fd5b506104ab610893366004613ae9565b612727565b3480156108a457600080fd5b5060105461047d565b3480156108b957600080fd5b50336000908152600f602052604090205460ff16610458565b3480156108de57600080fd5b506104ab6108ed366004613b61565b61289c565b3480156108fe57600080fd5b50336000908152600b602052604090205460ff166040516104019190613bcd565b34801561092b57600080fd5b506104ab61093a366004613ae9565b612cc2565b34801561094b57600080fd5b5061047d61095a3660046138e0565b612ecb565b34801561096b57600080fd5b5061047d6298968081565b34801561098257600080fd5b506109966109913660046138e0565b612eec565b604080516001600160a01b039788168152969095166020870152938501929092526060840152608083015260a082015260c001610401565b3480156109da57600080fd5b506104ab612f3f565b3480156109ef57600080fd5b506104ab6109fe366004613bdb565b61309e565b348015610a0f57600080fd5b50610458610a1e3660046137c4565b61317e565b348015610a2f57600080fd5b50610458610a3e3660046137c4565b6131de565b348015610a4f57600080fd5b506104ab610a5e3660046137c4565b613255565b348015610a6f57600080fd5b50610a83610a7e3660046137c4565b613290565b6040516104019493929190613c4b565b348015610a9f57600080fd5b5061047d610aae3660046137c4565b61347b565b348015610abf57600080fd5b50610708610ace3660046137c4565b6134d8565b348015610adf57600080fd5b50610458610aee3660046137c4565b613583565b600081336001600160a01b0382161480610b1757506000546001600160a01b031633145b610b335760405162461bcd60e51b815260040161038190613c8e565b6001600160a01b03831660009081526004602052604090205460ff1691505b50919050565b606081336001600160a01b0382161480610b7c57506000546001600160a01b031633145b610b985760405162461bcd60e51b815260040161038190613c8e565b6001600160a01b038316600090815260116020908152604080832080548251818502810185019093528083529192909190830182828015610bf857602002820191906000526020600020905b815481526020019060010190808311610be4575b505050505090506000815167ffffffffffffffff811115610c1b57610c1b613cbb565b604051908082528060200260200182016040528015610c5457816020015b610c41613760565b815260200190600190039081610c395790505b50905060005b8251811015610d63576000838281518110610c7757610c77613cd1565b6020026020010151905060005b601054811015610d59578160108281548110610ca257610ca2613cd1565b90600052602060002090600602016005015403610d515760108181548110610ccc57610ccc613cd1565b60009182526020918290206040805160c081018252600690930290910180546001600160a01b03908116845260018201541693830193909352600283015490820152600382015460608201526004820154608082015260059091015460a08201528451859085908110610d4157610d41613cd1565b6020026020010181905250610d59565b600101610c84565b5050600101610c5a565b50949350505050565b604051630339f20560e01b81526009600482015233602482015260006044820181905290819073__$216d480fa12da97749257234eeb81fa17a$__90630339f205906064016040805180830381865af4158015610dcd573d6000803e3d6000fd5b505050506040513d601f19601f82011682018060405250810190610df19190613ce7565b9392505050565b610e006135e3565b816001600160a01b038116610e275760405162461bcd60e51b815260040161038190613d15565b6001600160a01b0383166000908152600e602052604090205482151560ff909116151503610e8c5760405162461bcd60e51b815260206004820152601260248201527114dd185d1d5cc8185b1c9958591e481cd95d60721b6044820152606401610381565b6001600160a01b0383166000818152600e6020908152604091829020805460ff191686151590811790915591519182527f5b7ef9d8e7fd7ff1dae13005391bc3aa7cc048c7ba41af348e5da4dcbe7323e091015b60405180910390a2505050565b600080610ef983612ecb565b9150610f058284613d54565b9050915091565b610f146135e3565b826001600160a01b038116610f3b5760405162461bcd60e51b815260040161038190613d15565b81610f885760405162461bcd60e51b815260206004820152601960248201527f52656a656374696f6e20726561736f6e207265717569726564000000000000006044820152606401610381565b60405163685fcc5d60e01b815273__$2c261102a1e7e270d95414109a826543d2$__9063685fcc5d90610fc690600390889088908890600401613d67565b60006040518083038186803b158015610fde57600080fd5b505af4158015610ff2573d6000803e3d6000fd5b5050505050505050565b60606110066135e3565b6010805480602002602001604051908101604052809291908181526020016000905b8282101561109e5760008481526020908190206040805160c0810182526006860290920180546001600160a01b0390811684526001808301549091168486015260028201549284019290925260038101546060840152600481015460808401526005015460a08301529083529092019101611028565b50505050905090565b600080600080600080861180156110bf575060125486105b6111045760405162461bcd60e51b8152602060048201526016602482015275125b9d985b1a59081d1c985b9cd858dd1a5bdb88125160521b6044820152606401610381565b60005b60105481101561129757866010828154811061112557611125613cd1565b9060005260206000209060060201600501540361128f5760006010828154811061115157611151613cd1565b60009182526020918290206040805160c081018252600690930290910180546001600160a01b03908116845260018201541693830193909352600283015490820152600382015460608201526004820154608082015260059091015460a082015290506111c66000546001600160a01b031690565b6001600160a01b0316336001600160a01b031614806111ee575080516001600160a01b031633145b8061120e575080602001516001600160a01b0316336001600160a01b0316145b6112655760405162461bcd60e51b815260206004820152602260248201527f556e617574686f72697a65642061636365737320746f207472616e736163746960448201526137b760f11b6064820152608401610381565b806000015181602001518260400151836060015184608001519650965096509650965050506112d8565b600101611107565b5060405162461bcd60e51b8152602060048201526015602482015274151c985b9cd858dd1a5bdb881b9bdd08199bdd5b99605a1b6044820152606401610381565b91939590929450565b60606112eb6135e3565b600780546040805160208084028201810190925282815292919083018282801561133e57602002820191906000526020600020905b81546001600160a01b03168152600190910190602001808311611320575b5050505050905090565b600081336001600160a01b038216148061136c57506000546001600160a01b031633145b6113885760405162461bcd60e51b815260040161038190613c8e565b50506001600160a01b03166000908152600d602052604090205460ff1690565b6113b06135e3565b6113b8613610565b565b6113c26135e3565b6113ca613662565b6000601354116114125760405162461bcd60e51b81526020600482015260136024820152724e6f206665657320746f20776974686472617760681b6044820152606401610381565b601380546000918290559061142f6000546001600160a01b031690565b6001600160a01b03168260405160006040518083038185875af1925050503d8060008114611479576040519150601f19603f3d011682016040523d82523d6000602084013e61147e565b606091505b50509050806114c75760405162461bcd60e51b8152602060048201526015602482015274119959481dda5d1a191c985dd85b0819985a5b1959605a1b6044820152606401610381565b50506113b860018055565b6114da61368c565b3360008181526004602052604090205460029060ff166003811115611501576115016137df565b1461151e5760405162461bcd60e51b815260040161038190613dae565b6001600160a01b0381166000908152600d602052604090205460ff16801561155f57506001600160a01b0381166000908152600e602052604090205460ff16155b61157b5760405162461bcd60e51b815260040161038190613dd8565b8160026001600160a01b03821660009081526004602052604090205460ff1660038111156115ab576115ab6137df565b146115c85760405162461bcd60e51b815260040161038190613dae565b6001600160a01b0381166000908152600d602052604090205460ff16801561160957506001600160a01b0381166000908152600e602052604090205460ff16155b6116255760405162461bcd60e51b815260040161038190613dd8565b336001600160a01b038416036116735760405162461bcd60e51b815260206004820152601360248201527221b0b73737ba1039b2b732103a379039b2b63360691b6044820152606401610381565b600034116116c35760405162461bcd60e51b815260206004820181905260248201527f416d6f756e74206d7573742062652067726561746572207468616e207a65726f6044820152606401610381565b6001600160a01b0383166000908152600f602052604090205460ff16156117225760405162461bcd60e51b81526020600482015260136024820152722932b1b4b834b2b73a1034b990333937bd32b760691b6044820152606401610381565b600061172d34612ecb565b9050600061173b8234613dff565b60408051348152602081018590529192507f30928e76c6a54d53276a61676fb8079d25925880e81e43eb0f66cc81a5fdd0c2910160405180910390a1604051630b23f36d60e21b81526009600482015233602482015273__$216d480fa12da97749257234eeb81fa17a$__90632c8fcdb49060440160006040518083038186803b1580156117c857600080fd5b505af41580156117dc573d6000803e3d6000fd5b5050604051630339f20560e01b8152600960048201523360248201523460448201526000925082915073__$216d480fa12da97749257234eeb81fa17a$__90630339f205906064016040805180830381865af4158015611840573d6000803e3d6000fd5b505050506040513d601f19601f820116820180604052508101906118649190613ce7565b9150915081816040516020016118b091907f4461696c79206c696d69742065786365656465642e2052656d61696e696e673a8152600160fd1b6020820152602181019190915260410190565b604051602081830303815290604052906118dd5760405162461bcd60e51b81526004016103819190613e12565b5033600090815260096020526040812080543492906118fd908490613d54565b90915550506001600160a01b0387166000908152600c60205260408120805485929061192a908490613d54565b9250508190555083601360008282546119439190613d54565b90915550506040805160c081018252338082526001600160a01b038a811660208085018281528587018a8152606087018c815242608089019081526012805460a08b01908152601080546001818101835560009283528d5160069092027f1b6847dc741a1b0cd08d278845f9d819d87b734759afb55fe2de5cb82a9ae67281018054938e166001600160a01b031994851617905598517f1b6847dc741a1b0cd08d278845f9d819d87b734759afb55fe2de5cb82a9ae6738a01805491909d16921691909117909a5594517f1b6847dc741a1b0cd08d278845f9d819d87b734759afb55fe2de5cb82a9ae67487015592517f1b6847dc741a1b0cd08d278845f9d819d87b734759afb55fe2de5cb82a9ae67586015590517f1b6847dc741a1b0cd08d278845f9d819d87b734759afb55fe2de5cb82a9ae67685015590517f1b6847dc741a1b0cd08d278845f9d819d87b734759afb55fe2de5cb82a9ae6779093019290925585815260118352878120825481548088018355918352848320909101558381528781208254815496870182559082529290209093015590549351929390927f3d1eb710c7f636cf67f3e915dc67b8c61bec45252edd4dba3ca40c0e8e49defb90611b1d9089908b90918252602082015260400190565b60405180910390a46013546040805187815260208101929092527faf7c505ee772ec188af7067e1f73db08ab028e3d564273442b907742b9c41fa0910160405180910390a160128054906000611b7283613e25565b90915550506040518481526001600160a01b0389169033907f3990db2d31862302a685e8086b5755072a6e2b5b780af1ee81ece35ee3cd33459060200160405180910390a35050505050505050565b6000611bcb6135e3565b5060135490565b60008080808080808088336001600160a01b0382161480611bfd57506000546001600160a01b031633145b611c195760405162461bcd60e51b815260040161038190613c8e565b6001600160a01b038a166000908152600b602052604081205460ff169950600a908a6004811115611c4c57611c4c6137df565b6004811115611c5d57611c5d6137df565b81526020019081526020016000205497506201518042611c7d9190613e3e565b6001600160a01b038b1660009081526009602052604090206001015414611ca5576000611cbf565b6001600160a01b038a166000908152600960205260409020545b6001600160a01b03909a166000908152600c6020908152604080832054600d835281842054600e845282852054600f855283862054600490955292909420549c9e9b9d9c909b60ff9485169b50918416995091831697509116945092505050565b611d286135e3565b611d30613662565b806001600160a01b038116611d575760405162461bcd60e51b815260040161038190613d15565b6001600160a01b0382166000908152600c602052604090205480611db35760405162461bcd60e51b8152602060048201526013602482015272273790333ab73239903a37903932b1b7bb32b960691b6044820152606401610381565b6001600160a01b0383166000818152600c60205260408082208290555190919083908381818185875af1925050503d8060008114611e0d576040519150601f19603f3d011682016040523d82523d6000602084013e611e12565b606091505b5050905080611e635760405162461bcd60e51b815260206004820152601860248201527f5265636f76657279207472616e73666572206661696c656400000000000000006044820152606401610381565b836001600160a01b03167fd8138f8a3f377c5259ca548e70e4c2de94f129f5a11036a15b69513cba2b426a83604051611e9e91815260200190565b60405180910390a2505050611eb260018055565b50565b611ebd6135e3565b60003411611f1e5760405162461bcd60e51b815260206004820152602860248201527f4465706f73697420616d6f756e74206d7573742062652067726561746572207460448201526768616e207a65726f60c01b6064820152608401610381565b60405134815233907fce8f50bef0c9b984189b343b8bf9264667774780224a0b53de9005bb2d384a9f9060200160405180910390a2565b6000611f5f6135e3565b504790565b3360009081526011602090815260409182902080548351818402810184019094528084526060939283018282801561133e57602002820191906000526020600020905b815481526020019060010190808311611fa7575050505050905090565b611fcc6135e3565b6113b860006136b0565b6000806000806000611fe66135e3565b505060075460105460055460135492969195504794509250565b606061200a6135e3565b600580546040805160208084028201810190925282815292919083018282801561133e576020028201919060005260206000209081546001600160a01b03168152600190910190602001808311611320575050505050905090565b61206d6135e3565b6113b8613700565b6000600a8183600481111561208c5761208c6137df565b600481111561209d5761209d6137df565b8152602001908152602001600020549050919050565b806120f95760405162461bcd60e51b8152602060048201526016602482015275111bd8dd5b595b9d081a185cda081c995c5d5a5c995960521b6044820152606401610381565b6040516329fde8e360e01b815273__$2c261102a1e7e270d95414109a826543d2$__906329fde8e39061213790600390339087908790600401613d67565b60006040518083038186803b15801561214f57600080fd5b505af4158015612163573d6000803e3d6000fd5b505050505050565b6121736135e3565b816001600160a01b03811661219a5760405162461bcd60e51b815260040161038190613d15565b6001600160a01b0383166000908152600f602052604090205482151560ff9091161515036121ff5760405162461bcd60e51b815260206004820152601260248201527114dd185d1d5cc8185b1c9958591e481cd95d60721b6044820152606401610381565b6001600160a01b0383166000818152600f6020908152604091829020805460ff191686151590811790915591519182527f713eb400302cebac61f82eb8de5051d38458517ffac43ae45f4a9fd5d09ee6989101610ee0565b3360009081526011602090815260408083208054825181850281018501909352808352606094938301828280156122ad57602002820191906000526020600020905b815481526020019060010190808311612299575b505050505090506000815167ffffffffffffffff8111156122d0576122d0613cbb565b60405190808252806020026020018201604052801561230957816020015b6122f6613760565b8152602001906001900390816122ee5790505b50905060005b825181101561241857600083828151811061232c5761232c613cd1565b6020026020010151905060005b60105481101561240e57816010828154811061235757612357613cd1565b90600052602060002090600602016005015403612406576010818154811061238157612381613cd1565b60009182526020918290206040805160c081018252600690930290910180546001600160a01b03908116845260018201541693830193909352600283015490820152600382015460608201526004820154608082015260059091015460a082015284518590859081106123f6576123f6613cd1565b602002602001018190525061240e565b600101612339565b505060010161230f565b5092915050565b612427613662565b61242f61368c565b3360008181526004602052604090205460029060ff166003811115612456576124566137df565b146124735760405162461bcd60e51b815260040161038190613dae565b6001600160a01b0381166000908152600d602052604090205460ff1680156124b457506001600160a01b0381166000908152600e602052604090205460ff16155b6124d05760405162461bcd60e51b815260040161038190613dd8565b336000908152600f602052604090205460ff16156125245760405162461bcd60e51b815260206004820152601160248201527020b1b1b7bab73a1034b990333937bd32b760791b6044820152606401610381565b336000908152600c60205260409020546125745760405162461bcd60e51b81526020600482015260116024820152704e6f2066756e647320746f20636c61696d60781b6044820152606401610381565b336000818152600c6020526040808220805490839055905190929083908381818185875af1925050503d80600081146125c9576040519150601f19603f3d011682016040523d82523d6000602084013e6125ce565b606091505b50509050806126115760405162461bcd60e51b815260206004820152600f60248201526e151c985b9cd9995c8819985a5b1959608a1b6044820152606401610381565b60405182815233907fd8138f8a3f377c5259ca548e70e4c2de94f129f5a11036a15b69513cba2b426a9060200160405180910390a25050506113b860018055565b600081336001600160a01b038216148061267657506000546001600160a01b031633145b6126925760405162461bcd60e51b815260040161038190613c8e565b604051630339f20560e01b8152600960048201526001600160a01b03841660248201526000604482018190529073__$216d480fa12da97749257234eeb81fa17a$__90630339f205906064016040805180830381865af41580156126fa573d6000803e3d6000fd5b505050506040513d601f19601f8201168201806040525081019061271e9190613ce7565b95945050505050565b61272f6135e3565b816001600160a01b0381166127565760405162461bcd60e51b815260040161038190613d15565b60026001600160a01b03841660009081526004602052604090205460ff166003811115612785576127856137df565b146127ca5760405162461bcd60e51b8152602060048201526015602482015274155cd95c881b9bdd0812d650c8185c1c1c9bdd9959605a1b6044820152606401610381565b6001600160a01b0383166000908152600d602052604090205460ff166128295760405162461bcd60e51b8152602060048201526014602482015273155cd95c881b9bdd081dda1a5d195b1a5cdd195960621b6044820152606401610381565b6001600160a01b0383166000908152600b60205260409020805483919060ff1916600183600481111561285e5761285e6137df565b0217905550826001600160a01b03167ff0880b9fd3445ca37e9b5cf896eb23e5292331792ae8b6e4c45bc527c713adad83604051610ee09190613bcd565b6128a46135e3565b8281146128eb5760405162461bcd60e51b8152602060048201526015602482015274082e4e4c2f240d8cadccee8d040dad2e6dac2e8c6d605b1b6044820152606401610381565b60328311156129335760405162461bcd60e51b815260206004820152601460248201527342617463682073697a6520746f6f206c6172676560601b6044820152606401610381565b60005b83811015612cbb57600085858381811061295257612952613cd1565b905060200201602081019061296791906137c4565b6001600160a01b0316036129bd5760405162461bcd60e51b815260206004820152601860248201527f496e76616c6964206164647265737320696e20626174636800000000000000006044820152606401610381565b6001600460008787858181106129d5576129d5613cd1565b90506020020160208101906129ea91906137c4565b6001600160a01b0316815260208101919091526040016000205460ff166003811115612a1857612a186137df565b03612cb357600073__$2c261102a1e7e270d95414109a826543d2$__63145367866003888886818110612a4d57612a4d613cd1565b9050602002016020810190612a6291906137c4565b6040516001600160e01b031960e085901b16815260048101929092526001600160a01b03166024820152604401602060405180830381865af4158015612aac573d6000803e3d6000fd5b505050506040513d601f19601f82011682018060405250810190612ad09190613e60565b90508015612cb1576001600d6000888886818110612af057612af0613cd1565b9050602002016020810190612b0591906137c4565b6001600160a01b031681526020810191909152604001600020805460ff1916911515919091179055838383818110612b3f57612b3f613cd1565b9050602002016020810190612b549190613a8c565b600b6000888886818110612b6a57612b6a613cd1565b9050602002016020810190612b7f91906137c4565b6001600160a01b031681526020810191909152604001600020805460ff19166001836004811115612bb257612bb26137df565b0217905550858583818110612bc957612bc9613cd1565b9050602002016020810190612bde91906137c4565b6001600160a01b03167f995d2434d36c9bceaab42c56efe51e8ffe41fd11cabefd9e2cb83700d8b2035e6001604051612c1b911515815260200190565b60405180910390a2858583818110612c3557612c35613cd1565b9050602002016020810190612c4a91906137c4565b6001600160a01b03167ff0880b9fd3445ca37e9b5cf896eb23e5292331792ae8b6e4c45bc527c713adad858585818110612c8657612c86613cd1565b9050602002016020810190612c9b9190613a8c565b604051612ca89190613bcd565b60405180910390a25b505b600101612936565b5050505050565b612cca6135e3565b816001600160a01b038116612cf15760405162461bcd60e51b815260040161038190613d15565b60016001600160a01b03841660009081526004602052604090205460ff166003811115612d2057612d206137df565b14612d665760405162461bcd60e51b8152602060048201526016602482015275139bc81c195b991a5b99c812d650c81c995c5d595cdd60521b6044820152606401610381565b604051630a29b3c360e11b8152600360048201526001600160a01b038416602482015260009073__$2c261102a1e7e270d95414109a826543d2$__90631453678690604401602060405180830381865af4158015612dc8573d6000803e3d6000fd5b505050506040513d601f19601f82011682018060405250810190612dec9190613e60565b90508015612ec5576001600160a01b0384166000908152600d602090815260408083208054600160ff199182168117909255600b90935292208054869391921690836004811115612e3f57612e3f6137df565b0217905550604051600181526001600160a01b038516907f995d2434d36c9bceaab42c56efe51e8ffe41fd11cabefd9e2cb83700d8b2035e9060200160405180910390a2836001600160a01b03167ff0880b9fd3445ca37e9b5cf896eb23e5292331792ae8b6e4c45bc527c713adad84604051612ebc9190613bcd565b60405180910390a25b50505050565b600062989680612edc607d84613e7d565b612ee69190613e3e565b92915050565b60108181548110612efc57600080fd5b60009182526020909120600690910201805460018201546002830154600384015460048501546005909501546001600160a01b0394851696509390921693909286565b612f476135e3565b60025460ff16612fb25760405162461bcd60e51b815260206004820152603060248201527f436f6e7472616374206d7573742062652070617573656420666f7220656d657260448201526f19d95b98de481dda5d1a191c985dd85b60821b6064820152608401610381565b4780612ff75760405162461bcd60e51b81526020600482015260146024820152734e6f2066756e647320746f20776974686472617760601b6044820152606401610381565b600080546040516001600160a01b039091169083908381818185875af1925050503d8060008114613044576040519150601f19603f3d011682016040523d82523d6000602084013e613049565b606091505b505090508061309a5760405162461bcd60e51b815260206004820152601b60248201527f456d657267656e6379207769746864726177616c206661696c656400000000006044820152606401610381565b5050565b6130a66135e3565b600081116130f65760405162461bcd60e51b815260206004820152601f60248201527f4c696d6974206d7573742062652067726561746572207468616e207a65726f006044820152606401610381565b69152d02c7e14af68000008111156131415760405162461bcd60e51b815260206004820152600e60248201526d098d2dad2e840e8dede40d0d2ced60931b6044820152606401610381565b80600a6000846004811115613158576131586137df565b6004811115613169576131696137df565b81526020810191909152604001600020555050565b600081336001600160a01b03821614806131a257506000546001600160a01b031633145b6131be5760405162461bcd60e51b815260040161038190613c8e565b50506001600160a01b03166000908152600f602052604090205460ff1690565b600081336001600160a01b038216148061320257506000546001600160a01b031633145b61321e5760405162461bcd60e51b815260040161038190613c8e565b60026001600160a01b03841660009081526004602052604090205460ff16600381111561324d5761324d6137df565b149392505050565b61325d6135e3565b6001600160a01b03811661328757604051631e4fbdf760e01b815260006004820152602401610381565b611eb2816136b0565b60606000808284336001600160a01b03821614806132b857506000546001600160a01b031633145b6132d45760405162461bcd60e51b815260040161038190613c8e565b6001600160a01b03861660009081526003602052604080822081516080810190925280548290829061330590613e94565b80601f016020809104026020016040519081016040528092919081815260200182805461333190613e94565b801561337e5780601f106133535761010080835404028352916020019161337e565b820191906000526020600020905b81548152906001019060200180831161336157829003601f168201915b505050918352505060018201546020820152600282015460409091019060ff1660038111156133af576133af6137df565b60038111156133c0576133c06137df565b81526020016003820180546133d490613e94565b80601f016020809104026020016040519081016040528092919081815260200182805461340090613e94565b801561344d5780601f106134225761010080835404028352916020019161344d565b820191906000526020600020905b81548152906001019060200180831161343057829003601f168201915b505050919092525050815160208301516040840151606090940151919b909a50929850965090945050505050565b600081336001600160a01b038216148061349f57506000546001600160a01b031633145b6134bb5760405162461bcd60e51b815260040161038190613c8e565b50506001600160a01b03166000908152600c602052604090205490565b606081336001600160a01b03821614806134fc57506000546001600160a01b031633145b6135185760405162461bcd60e51b815260040161038190613c8e565b6001600160a01b0383166000908152601160209081526040918290208054835181840281018401909452808452909183018282801561357657602002820191906000526020600020905b815481526020019060010190808311613562575b5050505050915050919050565b600081336001600160a01b03821614806135a757506000546001600160a01b031633145b6135c35760405162461bcd60e51b815260040161038190613c8e565b50506001600160a01b03166000908152600e602052604090205460ff1690565b6000546001600160a01b031633146113b85760405163118cdaa760e01b8152336004820152602401610381565b61361861373d565b6002805460ff191690557f5db9ee0a495bf2e6ff9c91a7834c1ba4fdd244a5e8aa4e537bd38aeae4b073aa335b6040516001600160a01b03909116815260200160405180910390a1565b60026001540361368557604051633ee5aeb560e01b815260040160405180910390fd5b6002600155565b60025460ff16156113b85760405163d93c066560e01b815260040160405180910390fd5b600080546001600160a01b038381166001600160a01b0319831681178455604051919092169283917f8be0079c531659141344cd1fd0a4f28419497f9722a3daafe3b4186f6b6457e09190a35050565b61370861368c565b6002805460ff191660011790557f62e78cea01bee320cd4e420270b5ea74000d11b0c9f74754ebdbfc544b05a2586136453390565b60025460ff166113b857604051638dfc202b60e01b815260040160405180910390fd5b6040518060c0016040528060006001600160a01b0316815260200160006001600160a01b03168152602001600081526020016000815260200160008152602001600081525090565b80356001600160a01b03811681146137bf57600080fd5b919050565b6000602082840312156137d657600080fd5b610df1826137a8565b634e487b7160e01b600052602160045260246000fd5b60048110613805576138056137df565b9052565b60208101612ee682846137f5565b602080825282518282018190526000919060409081850190868401855b8281101561388e57815180516001600160a01b0390811686528782015116878601528581015186860152606080820151908601526080808201519086015260a0908101519085015260c09093019290850190600101613834565b5091979650505050505050565b8015158114611eb257600080fd5b600080604083850312156138bc57600080fd5b6138c5836137a8565b915060208301356138d58161389b565b809150509250929050565b6000602082840312156138f257600080fd5b5035919050565b60008083601f84011261390b57600080fd5b50813567ffffffffffffffff81111561392357600080fd5b60208301915083602082850101111561393b57600080fd5b9250929050565b60008060006040848603121561395757600080fd5b613960846137a8565b9250602084013567ffffffffffffffff81111561397c57600080fd5b613988868287016138f9565b9497909650939450505050565b6020808252825182820181905260009190848201906040850190845b818110156139d65783516001600160a01b0316835292840192918401916001016139b1565b50909695505050505050565b60058110613805576138056137df565b6101008101613a01828b6139e2565b886020830152876040830152866060830152851515608083015284151560a083015283151560c0830152613a3860e08301846137f5565b9998505050505050505050565b6020808252825182820181905260009190848201906040850190845b818110156139d657835183529284019291840191600101613a61565b8035600581106137bf57600080fd5b600060208284031215613a9e57600080fd5b610df182613a7d565b60008060208385031215613aba57600080fd5b823567ffffffffffffffff811115613ad157600080fd5b613add858286016138f9565b90969095509350505050565b60008060408385031215613afc57600080fd5b613b05836137a8565b9150613b1360208401613a7d565b90509250929050565b60008083601f840112613b2e57600080fd5b50813567ffffffffffffffff811115613b4657600080fd5b6020830191508360208260051b850101111561393b57600080fd5b60008060008060408587031215613b7757600080fd5b843567ffffffffffffffff80821115613b8f57600080fd5b613b9b88838901613b1c565b90965094506020870135915080821115613bb457600080fd5b50613bc187828801613b1c565b95989497509550505050565b60208101612ee682846139e2565b60008060408385031215613bee57600080fd5b613bf783613a7d565b946020939093013593505050565b6000815180845260005b81811015613c2b57602081850181015186830182015201613c0f565b506000602082860101526020601f19601f83011685010191505092915050565b608081526000613c5e6080830187613c05565b856020840152613c7160408401866137f5565b8281036060840152613c838185613c05565b979650505050505050565b602080825260139082015272556e617574686f72697a65642061636365737360681b604082015260600190565b634e487b7160e01b600052604160045260246000fd5b634e487b7160e01b600052603260045260246000fd5b60008060408385031215613cfa57600080fd5b8251613d058161389b565b6020939093015192949293505050565b6020808252600f908201526e496e76616c6964206164647265737360881b604082015260600190565b634e487b7160e01b600052601160045260246000fd5b80820180821115612ee657612ee6613d3e565b8481526001600160a01b03841660208201526060604082018190528101829052818360808301376000818301608090810191909152601f909201601f191601019392505050565b60208082526010908201526f12d650c81b9bdd08185c1c1c9bdd995960821b604082015260600190565b6020808252600d908201526c1058d8d95cdcc819195b9a5959609a1b604082015260600190565b81810381811115612ee657612ee6613d3e565b602081526000610df16020830184613c05565b600060018201613e3757613e37613d3e565b5060010190565b600082613e5b57634e487b7160e01b600052601260045260246000fd5b500490565b600060208284031215613e7257600080fd5b8151610df18161389b565b8082028115828204841417612ee657612ee6613d3e565b600181811c90821680613ea857607f821691505b602082108103610b5257634e487b7160e01b600052602260045260246000fdfea2646970667358221220025f398c693819a0fd0c720877337d80a5d691f87a496cd87d3b5d7481e24fc764736f6c63430008180033",
  "linkReferences": {
    "contracts/Remittance.sol": {
      "KYCLib": [
        {
          "length": 20,
          "start": 4421
        },
        {
          "length": 20,
          "start": 8886
        },
        {
          "length": 20,
          "start": 11215
        },
        {
          "length": 20,
          "start": 12092
        }
      ],
      "LimitLib": [
        {
          "length": 20,
          "start": 100
        },
        {
          "length": 20,
          "start": 3906
        },
        {
          "length": 20,
          "start": 6465
        },
        {
          "length": 20,
          "start": 6581
        },
        {
          "length": 20,
          "start": 10351
        }
      ]
    }
  },
  "deployedLinkReferences": {
    "contracts/Remittance.sol": {
      "KYCLib": [
        {
          "length": 20,
          "start": 3991
        },
        {
          "length": 20,
          "start": 8456
        },
        {
          "length": 20,
          "start": 10785
        },
        {
          "length": 20,
          "start": 11662
        }
      ],
      "LimitLib": [
        {
          "length": 20,
          "start": 3476
        },
        {
          "length": 20,
          "start": 6035
        },
        {
          "length": 20,
          "start": 6151
        },
        {
          "length": 20,
          "start": 9921
        }
      ]
    }
  }
}